{
  "abi": [
    {
      "inputs": [
        {
          "internalType": "string",
          "name": "_uri",
          "type": "string"
        },
        {
          "internalType": "address",
          "name": "_payment",
          "type": "address"
        },
        {
          "internalType": "address",
          "name": "__union",
          "type": "address"
        }
      ],
      "stateMutability": "nonpayable",
      "type": "constructor"
    },
    {
      "inputs": [
        {
          "internalType": "address",
          "name": "sender",
          "type": "address"
        },
        {
          "internalType": "uint256",
          "name": "balance",
          "type": "uint256"
        },
        {
          "internalType": "uint256",
          "name": "needed",
          "type": "uint256"
        },
        {
          "internalType": "uint256",
          "name": "tokenId",
          "type": "uint256"
        }
      ],
      "name": "ERC1155InsufficientBalance",
      "type": "error"
    },
    {
      "inputs": [
        {
          "internalType": "address",
          "name": "approver",
          "type": "address"
        }
      ],
      "name": "ERC1155InvalidApprover",
      "type": "error"
    },
    {
      "inputs": [
        {
          "internalType": "uint256",
          "name": "idsLength",
          "type": "uint256"
        },
        {
          "internalType": "uint256",
          "name": "valuesLength",
          "type": "uint256"
        }
      ],
      "name": "ERC1155InvalidArrayLength",
      "type": "error"
    },
    {
      "inputs": [
        {
          "internalType": "address",
          "name": "operator",
          "type": "address"
        }
      ],
      "name": "ERC1155InvalidOperator",
      "type": "error"
    },
    {
      "inputs": [
        {
          "internalType": "address",
          "name": "receiver",
          "type": "address"
        }
      ],
      "name": "ERC1155InvalidReceiver",
      "type": "error"
    },
    {
      "inputs": [
        {
          "internalType": "address",
          "name": "sender",
          "type": "address"
        }
      ],
      "name": "ERC1155InvalidSender",
      "type": "error"
    },
    {
      "inputs": [
        {
          "internalType": "address",
          "name": "operator",
          "type": "address"
        },
        {
          "internalType": "address",
          "name": "owner",
          "type": "address"
        }
      ],
      "name": "ERC1155MissingApprovalForAll",
      "type": "error"
    },
    {
      "inputs": [
        {
          "internalType": "address",
          "name": "_sender",
          "type": "address"
        }
      ],
      "name": "NotKYCed",
      "type": "error"
    },
    {
      "inputs": [
        {
          "internalType": "address",
          "name": "_sender",
          "type": "address"
        }
      ],
      "name": "NotTreasuryAddress",
      "type": "error"
    },
    {
      "inputs": [
        {
          "internalType": "address",
          "name": "owner",
          "type": "address"
        }
      ],
      "name": "OwnableInvalidOwner",
      "type": "error"
    },
    {
      "inputs": [
        {
          "internalType": "address",
          "name": "account",
          "type": "address"
        }
      ],
      "name": "OwnableUnauthorizedAccount",
      "type": "error"
    },
    {
      "inputs": [],
      "name": "paymentNotMade",
      "type": "error"
    },
    {
      "inputs": [
        {
          "internalType": "address",
          "name": "_sender",
          "type": "address"
        },
        {
          "internalType": "uint256",
          "name": "_tokenId",
          "type": "uint256"
        },
        {
          "internalType": "uint256",
          "name": "_amount",
          "type": "uint256"
        }
      ],
      "name": "retrievalFailed",
      "type": "error"
    },
    {
      "anonymous": false,
      "inputs": [
        {
          "indexed": true,
          "internalType": "address",
          "name": "account",
          "type": "address"
        },
        {
          "indexed": true,
          "internalType": "address",
          "name": "operator",
          "type": "address"
        },
        {
          "indexed": false,
          "internalType": "bool",
          "name": "approved",
          "type": "bool"
        }
      ],
      "name": "ApprovalForAll",
      "type": "event"
    },
    {
      "anonymous": false,
      "inputs": [
        {
          "indexed": true,
          "internalType": "address",
          "name": "previousOwner",
          "type": "address"
        },
        {
          "indexed": true,
          "internalType": "address",
          "name": "newOwner",
          "type": "address"
        }
      ],
      "name": "OwnershipTransferred",
      "type": "event"
    },
    {
      "anonymous": false,
      "inputs": [
        {
          "indexed": true,
          "internalType": "address",
          "name": "operator",
          "type": "address"
        },
        {
          "indexed": true,
          "internalType": "address",
          "name": "from",
          "type": "address"
        },
        {
          "indexed": true,
          "internalType": "address",
          "name": "to",
          "type": "address"
        },
        {
          "indexed": false,
          "internalType": "uint256[]",
          "name": "ids",
          "type": "uint256[]"
        },
        {
          "indexed": false,
          "internalType": "uint256[]",
          "name": "values",
          "type": "uint256[]"
        }
      ],
      "name": "TransferBatch",
      "type": "event"
    },
    {
      "anonymous": false,
      "inputs": [
        {
          "indexed": true,
          "internalType": "address",
          "name": "operator",
          "type": "address"
        },
        {
          "indexed": true,
          "internalType": "address",
          "name": "from",
          "type": "address"
        },
        {
          "indexed": true,
          "internalType": "address",
          "name": "to",
          "type": "address"
        },
        {
          "indexed": false,
          "internalType": "uint256",
          "name": "id",
          "type": "uint256"
        },
        {
          "indexed": false,
          "internalType": "uint256",
          "name": "value",
          "type": "uint256"
        }
      ],
      "name": "TransferSingle",
      "type": "event"
    },
    {
      "anonymous": false,
      "inputs": [
        {
          "indexed": false,
          "internalType": "string",
          "name": "value",
          "type": "string"
        },
        {
          "indexed": true,
          "internalType": "uint256",
          "name": "id",
          "type": "uint256"
        }
      ],
      "name": "URI",
      "type": "event"
    },
    {
      "anonymous": false,
      "inputs": [
        {
          "indexed": true,
          "internalType": "address",
          "name": "_sender",
          "type": "address"
        },
        {
          "indexed": true,
          "internalType": "uint256",
          "name": "_tokenId",
          "type": "uint256"
        },
        {
          "indexed": true,
          "internalType": "uint256",
          "name": "_amount",
          "type": "uint256"
        }
      ],
      "name": "primarySale",
      "type": "event"
    },
    {
      "anonymous": false,
      "inputs": [
        {
          "indexed": true,
          "internalType": "uint256",
          "name": "_tokenId",
          "type": "uint256"
        },
        {
          "indexed": true,
          "internalType": "uint256",
          "name": "_units",
          "type": "uint256"
        },
        {
          "indexed": false,
          "internalType": "uint256",
          "name": "_price",
          "type": "uint256"
        }
      ],
      "name": "publicOrderCreated",
      "type": "event"
    },
    {
      "anonymous": false,
      "inputs": [
        {
          "indexed": false,
          "internalType": "address",
          "name": "_sender",
          "type": "address"
        },
        {
          "indexed": false,
          "internalType": "uint256",
          "name": "_tokenId",
          "type": "uint256"
        },
        {
          "indexed": false,
          "internalType": "uint256",
          "name": "_amount",
          "type": "uint256"
        }
      ],
      "name": "retrievalsucceed",
      "type": "event"
    },
    {
      "anonymous": false,
      "inputs": [
        {
          "indexed": true,
          "internalType": "address",
          "name": "_seller",
          "type": "address"
        },
        {
          "indexed": true,
          "internalType": "uint256",
          "name": "_tokenId",
          "type": "uint256"
        },
        {
          "indexed": true,
          "internalType": "uint256",
          "name": "_units",
          "type": "uint256"
        },
        {
          "indexed": false,
          "internalType": "uint256",
          "name": "_price",
          "type": "uint256"
        }
      ],
      "name": "secondaryForSale",
      "type": "event"
    },
    {
      "anonymous": false,
      "inputs": [
        {
          "indexed": true,
          "internalType": "address",
          "name": "_seller",
          "type": "address"
        },
        {
          "indexed": true,
          "internalType": "address",
          "name": "_buyer",
          "type": "address"
        },
        {
          "indexed": true,
          "internalType": "uint256",
          "name": "_units",
          "type": "uint256"
        },
        {
          "indexed": false,
          "internalType": "uint256",
          "name": "_price",
          "type": "uint256"
        },
        {
          "indexed": false,
          "internalType": "uint256",
          "name": "_tokenId",
          "type": "uint256"
        }
      ],
      "name": "secondarySold",
      "type": "event"
    },
    {
      "inputs": [
        {
          "internalType": "address",
          "name": "_KYCed",
          "type": "address"
        }
      ],
      "name": "KYC",
      "outputs": [],
      "stateMutability": "nonpayable",
      "type": "function"
    },
    {
      "inputs": [
        {
          "internalType": "address",
          "name": "account",
          "type": "address"
        },
        {
          "internalType": "uint256",
          "name": "id",
          "type": "uint256"
        }
      ],
      "name": "balanceOf",
      "outputs": [
        {
          "internalType": "uint256",
          "name": "",
          "type": "uint256"
        }
      ],
      "stateMutability": "view",
      "type": "function"
    },
    {
      "inputs": [
        {
          "internalType": "address[]",
          "name": "accounts",
          "type": "address[]"
        },
        {
          "internalType": "uint256[]",
          "name": "ids",
          "type": "uint256[]"
        }
      ],
      "name": "balanceOfBatch",
      "outputs": [
        {
          "internalType": "uint256[]",
          "name": "",
          "type": "uint256[]"
        }
      ],
      "stateMutability": "view",
      "type": "function"
    },
    {
      "inputs": [
        {
          "internalType": "address",
          "name": "_seller",
          "type": "address"
        },
        {
          "internalType": "uint256",
          "name": "_tokenId",
          "type": "uint256"
        },
        {
          "internalType": "uint256",
          "name": "_units",
          "type": "uint256"
        }
      ],
      "name": "buySecondary",
      "outputs": [],
      "stateMutability": "nonpayable",
      "type": "function"
    },
    {
      "inputs": [
        {
          "internalType": "address",
          "name": "",
          "type": "address"
        }
      ],
      "name": "buyer",
      "outputs": [
        {
          "internalType": "bool",
          "name": "",
          "type": "bool"
        }
      ],
      "stateMutability": "view",
      "type": "function"
    },
    {
      "inputs": [
        {
          "internalType": "uint256",
          "name": "_tokenId",
          "type": "uint256"
        }
      ],
      "name": "getOpenBuy",
      "outputs": [
        {
          "internalType": "uint256",
          "name": "",
          "type": "uint256"
        },
        {
          "internalType": "uint256",
          "name": "",
          "type": "uint256"
        }
      ],
      "stateMutability": "view",
      "type": "function"
    },
    {
      "inputs": [
        {
          "internalType": "uint256",
          "name": "_tokenId",
          "type": "uint256"
        },
        {
          "internalType": "address",
          "name": "_seller",
          "type": "address"
        }
      ],
      "name": "getSecondaryMarket",
      "outputs": [
        {
          "internalType": "uint256",
          "name": "",
          "type": "uint256"
        },
        {
          "internalType": "uint256",
          "name": "",
          "type": "uint256"
        }
      ],
      "stateMutability": "view",
      "type": "function"
    },
    {
      "inputs": [
        {
          "internalType": "address",
          "name": "account",
          "type": "address"
        },
        {
          "internalType": "address",
          "name": "operator",
          "type": "address"
        }
      ],
      "name": "isApprovedForAll",
      "outputs": [
        {
          "internalType": "bool",
          "name": "",
          "type": "bool"
        }
      ],
      "stateMutability": "view",
      "type": "function"
    },
    {
      "inputs": [
        {
          "internalType": "address",
          "name": "",
          "type": "address"
        },
        {
          "internalType": "address",
          "name": "",
          "type": "address"
        },
        {
          "internalType": "uint256[]",
          "name": "",
          "type": "uint256[]"
        },
        {
          "internalType": "uint256[]",
          "name": "",
          "type": "uint256[]"
        },
        {
          "internalType": "bytes",
          "name": "",
          "type": "bytes"
        }
      ],
      "name": "onERC1155BatchReceived",
      "outputs": [
        {
          "internalType": "bytes4",
          "name": "",
          "type": "bytes4"
        }
      ],
      "stateMutability": "nonpayable",
      "type": "function"
    },
    {
      "inputs": [
        {
          "internalType": "address",
          "name": "",
          "type": "address"
        },
        {
          "internalType": "address",
          "name": "",
          "type": "address"
        },
        {
          "internalType": "uint256",
          "name": "",
          "type": "uint256"
        },
        {
          "internalType": "uint256",
          "name": "",
          "type": "uint256"
        },
        {
          "internalType": "bytes",
          "name": "",
          "type": "bytes"
        }
      ],
      "name": "onERC1155Received",
      "outputs": [
        {
          "internalType": "bytes4",
          "name": "",
          "type": "bytes4"
        }
      ],
      "stateMutability": "nonpayable",
      "type": "function"
    },
    {
      "inputs": [
        {
          "internalType": "address",
          "name": "operator",
          "type": "address"
        },
        {
          "internalType": "address",
          "name": "from",
          "type": "address"
        },
        {
          "internalType": "uint256",
          "name": "tokenId",
          "type": "uint256"
        },
        {
          "internalType": "bytes",
          "name": "data",
          "type": "bytes"
        }
      ],
      "name": "onERC721Received",
      "outputs": [
        {
          "internalType": "bytes4",
          "name": "",
          "type": "bytes4"
        }
      ],
      "stateMutability": "nonpayable",
      "type": "function"
    },
    {
      "inputs": [
        {
          "internalType": "uint256",
          "name": "",
          "type": "uint256"
        }
      ],
      "name": "openBuy",
      "outputs": [
        {
          "internalType": "uint256",
          "name": "_price",
          "type": "uint256"
        },
        {
          "internalType": "uint256",
          "name": "_avlb",
          "type": "uint256"
        }
      ],
      "stateMutability": "view",
      "type": "function"
    },
    {
      "inputs": [],
      "name": "owner",
      "outputs": [
        {
          "internalType": "address",
          "name": "",
          "type": "address"
        }
      ],
      "stateMutability": "view",
      "type": "function"
    },
    {
      "inputs": [
        {
          "internalType": "uint256",
          "name": "_tokenId",
          "type": "uint256"
        },
        {
          "internalType": "uint256",
          "name": "_amount",
          "type": "uint256"
        }
      ],
      "name": "purchasePrimary",
      "outputs": [],
      "stateMutability": "nonpayable",
      "type": "function"
    },
    {
      "inputs": [],
      "name": "renounceOwnership",
      "outputs": [],
      "stateMutability": "nonpayable",
      "type": "function"
    },
    {
      "inputs": [
        {
          "internalType": "uint256",
          "name": "_tokenId",
          "type": "uint256"
        },
        {
          "internalType": "uint256",
          "name": "_amount",
          "type": "uint256"
        }
      ],
      "name": "retrieveInvestment",
      "outputs": [],
      "stateMutability": "nonpayable",
      "type": "function"
    },
    {
      "inputs": [
        {
          "internalType": "address",
          "name": "from",
          "type": "address"
        },
        {
          "internalType": "address",
          "name": "to",
          "type": "address"
        },
        {
          "internalType": "uint256[]",
          "name": "ids",
          "type": "uint256[]"
        },
        {
          "internalType": "uint256[]",
          "name": "values",
          "type": "uint256[]"
        },
        {
          "internalType": "bytes",
          "name": "data",
          "type": "bytes"
        }
      ],
      "name": "safeBatchTransferFrom",
      "outputs": [],
      "stateMutability": "nonpayable",
      "type": "function"
    },
    {
      "inputs": [
        {
          "internalType": "address",
          "name": "from",
          "type": "address"
        },
        {
          "internalType": "address",
          "name": "to",
          "type": "address"
        },
        {
          "internalType": "uint256",
          "name": "id",
          "type": "uint256"
        },
        {
          "internalType": "uint256",
          "name": "value",
          "type": "uint256"
        },
        {
          "internalType": "bytes",
          "name": "data",
          "type": "bytes"
        }
      ],
      "name": "safeTransferFrom",
      "outputs": [],
      "stateMutability": "nonpayable",
      "type": "function"
    },
    {
      "inputs": [
        {
          "internalType": "uint256",
          "name": "",
          "type": "uint256"
        },
        {
          "internalType": "address",
          "name": "",
          "type": "address"
        }
      ],
      "name": "secondaryMarket",
      "outputs": [
        {
          "internalType": "uint256",
          "name": "_price",
          "type": "uint256"
        },
        {
          "internalType": "uint256",
          "name": "_avlb",
          "type": "uint256"
        }
      ],
      "stateMutability": "view",
      "type": "function"
    },
    {
      "inputs": [
        {
          "internalType": "uint256",
          "name": "_tokenId",
          "type": "uint256"
        },
        {
          "internalType": "uint256",
          "name": "_units",
          "type": "uint256"
        },
        {
          "internalType": "uint256",
          "name": "_price",
          "type": "uint256"
        }
      ],
      "name": "sellMyUnits",
      "outputs": [],
      "stateMutability": "nonpayable",
      "type": "function"
    },
    {
      "inputs": [
        {
          "internalType": "address",
          "name": "operator",
          "type": "address"
        },
        {
          "internalType": "bool",
          "name": "approved",
          "type": "bool"
        }
      ],
      "name": "setApprovalForAll",
      "outputs": [],
      "stateMutability": "nonpayable",
      "type": "function"
    },
    {
      "inputs": [
        {
          "internalType": "address",
          "name": "_addr",
          "type": "address"
        }
      ],
      "name": "setTreasury",
      "outputs": [],
      "stateMutability": "nonpayable",
      "type": "function"
    },
    {
      "inputs": [
        {
          "internalType": "bytes4",
          "name": "interfaceId",
          "type": "bytes4"
        }
      ],
      "name": "supportsInterface",
      "outputs": [
        {
          "internalType": "bool",
          "name": "",
          "type": "bool"
        }
      ],
      "stateMutability": "view",
      "type": "function"
    },
    {
      "inputs": [
        {
          "internalType": "address",
          "name": "newOwner",
          "type": "address"
        }
      ],
      "name": "transferOwnership",
      "outputs": [],
      "stateMutability": "nonpayable",
      "type": "function"
    },
    {
      "inputs": [
        {
          "internalType": "uint256",
          "name": "",
          "type": "uint256"
        }
      ],
      "name": "uri",
      "outputs": [
        {
          "internalType": "string",
          "name": "",
          "type": "string"
        }
      ],
      "stateMutability": "view",
      "type": "function"
    }
  ],
  "bytecode": {
    "object": "0x60806040523480156200001157600080fd5b5060405162003067380380620030678339810160408190526200003491620001ad565b8233806200005d57604051631e4fbdf760e01b8152600060048201526024015b60405180910390fd5b6200006881620000b9565b50620000748162000109565b50600580546001600160a01b038085166001600160a01b0319928316179092556006805492841692909116919091179055620000b0336200011b565b50505062000402565b600080546001600160a01b038381166001600160a01b0319831681178455604051919092169283917f8be0079c531659141344cd1fd0a4f28419497f9722a3daafe3b4186f6b6457e09190a35050565b600362000117828262000336565b5050565b6200012562000149565b6001600160a01b03166000908152600960205260409020805460ff19166001179055565b6000546001600160a01b03163314620001785760405163118cdaa760e01b815233600482015260240162000054565b565b634e487b7160e01b600052604160045260246000fd5b80516001600160a01b0381168114620001a857600080fd5b919050565b600080600060608486031215620001c357600080fd5b83516001600160401b0380821115620001db57600080fd5b818601915086601f830112620001f057600080fd5b8151818111156200020557620002056200017a565b604051601f8201601f19908116603f011681019083821181831017156200023057620002306200017a565b816040528281526020935089848487010111156200024d57600080fd5b600091505b8282101562000271578482018401518183018501529083019062000252565b60008484830101528097505050506200028c81870162000190565b935050506200029e6040850162000190565b90509250925092565b600181811c90821680620002bc57607f821691505b602082108103620002dd57634e487b7160e01b600052602260045260246000fd5b50919050565b601f8211156200033157600081815260208120601f850160051c810160208610156200030c5750805b601f850160051c820191505b818110156200032d5782815560010162000318565b5050505b505050565b81516001600160401b038111156200035257620003526200017a565b6200036a81620003638454620002a7565b84620002e3565b602080601f831160018114620003a25760008415620003895750858301515b600019600386901b1c1916600185901b1785556200032d565b600085815260208120601f198616915b82811015620003d357888601518255948401946001909101908401620003b2565b5085821015620003f25787850151600019600388901b60f8161c191681555b5050505050600190811b01905550565b612c5580620004126000396000f3fe608060405234801561001057600080fd5b50600436106101a25760003560e01c80638da5cb5b116100ee578063d98499f311610097578063f23a6e6111610071578063f23a6e6114610487578063f242432a146104bf578063f2fde38b146104d2578063feb8dc7c146104e557600080fd5b8063d98499f314610411578063e985e9c514610438578063f0f442601461047457600080fd5b8063bc197c81116100c8578063bc197c81146103b3578063bd3b1046146103eb578063d0a19852146103fe57600080fd5b80638da5cb5b14610362578063a22cb4651461037d578063b77482081461039057600080fd5b80633c4ce768116101505780635ad2dfed1161012a5780635ad2dfed146102eb5780635bc4dacd1461031d578063715018a61461035a57600080fd5b80633c4ce768146102a55780633efcb0f5146102b85780634e1273f4146102cb57600080fd5b80630e89341c116101815780630e89341c1461022c578063150b7a021461024c5780632eb2c2d61461029057600080fd5b8062fdd58e146101a757806301ffc9a7146101cd5780630e372fc5146101f0575b600080fd5b6101ba6101b5366004612359565b6104f8565b6040519081526020015b60405180910390f35b6101e06101db3660046123b1565b610522565b60405190151581526020016101c4565b6102176101fe3660046123d5565b6007602052600090815260409020805460019091015482565b604080519283526020830191909152016101c4565b61023f61023a3660046123d5565b610610565b6040516101c49190612452565b61025f61025a366004612465565b6106a4565b6040517fffffffff0000000000000000000000000000000000000000000000000000000090911681526020016101c4565b6102a361029e36600461269b565b6106da565b005b6102a36102b3366004612745565b61077e565b6102a36102c6366004612771565b61095f565b6102de6102d93660046127a4565b610e80565b6040516101c4919061289f565b6102176102f93660046128b2565b60086020908152600092835260408084209091529082529020805460019091015482565b61021761032b3660046128b2565b60009182526008602090815260408084206001600160a01b039390931684529190529020600181015490549091565b6102a3610f6e565b6000546040516001600160a01b0390911681526020016101c4565b6102a361038b3660046128ec565b610f82565b6101e061039e366004612923565b60096020526000908152604090205460ff1681565b61025f6103c136600461269b565b7fbc197c810000000000000000000000000000000000000000000000000000000095945050505050565b6102a36103f9366004612923565b610f91565b6102a361040c36600461293e565b610fdb565b61021761041f3660046123d5565b6000908152600760205260409020600181015490549091565b6101e0610446366004612960565b6001600160a01b03918216600090815260026020908152604080832093909416825291909152205460ff1690565b6102a3610482366004612923565b6113a7565b61025f61049536600461298a565b7ff23a6e610000000000000000000000000000000000000000000000000000000095945050505050565b6102a36104cd36600461298a565b6113e9565b6102a36104e0366004612923565b611480565b6102a36104f336600461293e565b6114d7565b60008181526001602090815260408083206001600160a01b03861684529091529020545b92915050565b60007fffffffff0000000000000000000000000000000000000000000000000000000082167fd9b67a260000000000000000000000000000000000000000000000000000000014806105b557507fffffffff0000000000000000000000000000000000000000000000000000000082167f0e89341c00000000000000000000000000000000000000000000000000000000145b8061060157507fffffffff0000000000000000000000000000000000000000000000000000000082167f4e2312e000000000000000000000000000000000000000000000000000000000145b8061051c575061051c82611762565b60606003805461061f906129ef565b80601f016020809104026020016040519081016040528092919081815260200182805461064b906129ef565b80156106985780601f1061066d57610100808354040283529160200191610698565b820191906000526020600020905b81548152906001019060200180831161067b57829003601f168201915b50505050509050919050565b60006106af846117b8565b507f150b7a020000000000000000000000000000000000000000000000000000000095945050505050565b336001600160a01b038616811480159061071a57506001600160a01b0380871660009081526002602090815260408083209385168352929052205460ff16155b15610769576040517fe237d9220000000000000000000000000000000000000000000000000000000081526001600160a01b038083166004830152871660248201526044015b60405180910390fd5b61077686868686866118c7565b505050505050565b3360009081526009602052604090205460ff166107c9576040517fed0f3a1b000000000000000000000000000000000000000000000000000000008152336004820152602401610760565b816107d433856104f8565b101561083c576040517f08c379a000000000000000000000000000000000000000000000000000000000815260206004820181905260248201527f6d65726361646f41626572746f203a204e6f7420656e6f75676820756e6974736044820152606401610760565b33600090815260026020908152604080832030845290915290205460ff166108e6576040517f08c379a000000000000000000000000000000000000000000000000000000000815260206004820152602960248201527f6d65726361646f41626572746f203a204e6f7420617070726f76656420666f7260448201527f20636f6e747261637400000000000000000000000000000000000000000000006064820152608401610760565b604080518082018252828152602080820185815260008781526008835284812033808352935284902092518355516001909201919091559051839185917f7aa393e2de6e760269612f345e5741eb8713b054ad41e6f84de83f3ee5edd00c906109529086815260200190565b60405180910390a4505050565b3360009081526009602052604090205460ff166109aa576040517fed0f3a1b000000000000000000000000000000000000000000000000000000008152336004820152602401610760565b60008281526008602090815260408083206001600160a01b0387168452909152902060010154811115610a5f576040517f08c379a000000000000000000000000000000000000000000000000000000000815260206004820152603160248201527f6d65726361646f41626572746f203a20547279696e6720746f20627579206d6f60448201527f7265207468616e20617661696c61626c650000000000000000000000000000006064820152608401610760565b60008281526008602090815260408083206001600160a01b0387168452909152812054610a8d908390612a71565b6005546040517f70a0823100000000000000000000000000000000000000000000000000000000815233600482015291925082916001600160a01b03909116906370a0823190602401602060405180830381865afa158015610af3573d6000803e3d6000fd5b505050506040513d601f19601f82011682018060405250810190610b179190612a88565b1015610b7f576040517f08c379a000000000000000000000000000000000000000000000000000000000815260206004820181905260248201527f6d65726361646f41626572746f203a204e6f7420656e6f756768206d6f6e65796044820152606401610760565b6005546040517fdd62ed3e00000000000000000000000000000000000000000000000000000000815233600482015230602482015282916001600160a01b03169063dd62ed3e90604401602060405180830381865afa158015610be6573d6000803e3d6000fd5b505050506040513d601f19601f82011682018060405250810190610c0a9190612a88565b1015610c97576040517f08c379a0000000000000000000000000000000000000000000000000000000008152602060048201526024808201527f6d65726361646f41626572746f203a20416c6c6f77616e6365206e6f7420656e60448201527f6f756768000000000000000000000000000000000000000000000000000000006064820152608401610760565b6001600160a01b038416600090815260026020908152604080832030845290915290205460ff16610d4a576040517f08c379a000000000000000000000000000000000000000000000000000000000815260206004820152602b60248201527f6d65726361646f41626572746f203a2053656c656c72204e6f7420617070726f60448201527f76656420666f7220616c6c0000000000000000000000000000000000000000006064820152608401610760565b6005546040517f23b872dd0000000000000000000000000000000000000000000000000000000081523360048201526001600160a01b03868116602483015260448201849052909116906323b872dd906064016020604051808303816000875af1158015610dbc573d6000803e3d6000fd5b505050506040513d601f19601f82011682018060405250810190610de09190612aa1565b610e16576040517fc4bd428100000000000000000000000000000000000000000000000000000000815260040160405180910390fd5b610e328433858560405180602001604052806000815250611961565b6040805182815260208101859052839133916001600160a01b038816917f2c939b612f6e497b4f3e7beac4db3de1aa2fdaa818c78408dfd361db5b195dcf910160405180910390a450505050565b60608151835114610eca57815183516040517f5b05999100000000000000000000000000000000000000000000000000000000815260048101929092526024820152604401610760565b6000835167ffffffffffffffff811115610ee657610ee6612500565b604051908082528060200260200182016040528015610f0f578160200160208202803683370190505b50905060005b8451811015610f6657602080820286010151610f39906020808402870101516104f8565b828281518110610f4b57610f4b612abe565b6020908102919091010152610f5f81612aed565b9050610f15565b509392505050565b610f76611a22565b610f806000611a68565b565b610f8d338383611ad0565b5050565b610f99611a22565b6001600160a01b0316600090815260096020526040902080547fffffffffffffffffffffffffffffffffffffffffffffffffffffffffffffff00166001179055565b3360009081526009602052604090205460ff16611026576040517fed0f3a1b000000000000000000000000000000000000000000000000000000008152336004820152602401610760565b8061103130846104f8565b10156110bf576040517f08c379a000000000000000000000000000000000000000000000000000000000815260206004820152602360248201527f6d65726361646f41626572746f203a204e6f7420656e6f75676820617661696c60448201527f626c6500000000000000000000000000000000000000000000000000000000006064820152608401610760565b600480546040517fb176c59d0000000000000000000000000000000000000000000000000000000081529182018490526000916001600160a01b039091169063b176c59d906024016040805180830381865afa158015611123573d6000803e3d6000fd5b505050506040513d601f19601f820116820180604052508101906111479190612b25565b5090506111548183612a71565b6005546040517fdd62ed3e0000000000000000000000000000000000000000000000000000000081523360048201523060248201526001600160a01b039091169063dd62ed3e90604401602060405180830381865afa1580156111bb573d6000803e3d6000fd5b505050506040513d601f19601f820116820180604052508101906111df9190612a88565b101561126c576040517f08c379a0000000000000000000000000000000000000000000000000000000008152602060048201526024808201527f6d65726361646f41626572746f203a20416c6c6f77616e6365206e6f7420656e60448201527f6f756768000000000000000000000000000000000000000000000000000000006064820152608401610760565b6005546006546001600160a01b03918216916323b872dd913391166112918587612a71565b6040517fffffffff0000000000000000000000000000000000000000000000000000000060e086901b1681526001600160a01b03938416600482015292909116602483015260448201526064016020604051808303816000875af11580156112fd573d6000803e3d6000fd5b505050506040513d601f19601f820116820180604052508101906113219190612aa1565b611357576040517fc4bd428100000000000000000000000000000000000000000000000000000000815260040160405180910390fd5b6113733033858560405180602001604052806000815250611961565b6040518290849033907f578e1297d3ef1c181a1ca672374ed2a4472844362b1dde5923fa2a2c12347e4990600090a4505050565b6113af611a22565b600480547fffffffffffffffffffffffff0000000000000000000000000000000000000000166001600160a01b0392909216919091179055565b336001600160a01b038616811480159061142957506001600160a01b0380871660009081526002602090815260408083209385168352929052205460ff16155b15611473576040517fe237d9220000000000000000000000000000000000000000000000000000000081526001600160a01b03808316600483015287166024820152604401610760565b6107768686868686611961565b611488611a22565b6001600160a01b0381166114cb576040517f1e4fbdf700000000000000000000000000000000000000000000000000000000815260006004820152602401610760565b6114d481611a68565b50565b3360009081526009602052604090205460ff16611522576040517fed0f3a1b000000000000000000000000000000000000000000000000000000008152336004820152602401610760565b8061152d33846104f8565b1015611595576040517f08c379a000000000000000000000000000000000000000000000000000000000815260206004820181905260248201527f6d65726361646f41626572746f203a204e6f7420656e6f75676820756e6974736044820152606401610760565b33600090815260026020908152604080832030845290915290205460ff1661163f576040517f08c379a000000000000000000000000000000000000000000000000000000000815260206004820152602960248201527f6d65726361646f41626572746f203a204e6f7420617070726f76656420666f7260448201527f20636f6e747261637400000000000000000000000000000000000000000000006064820152608401610760565b61164a338383611b96565b600480546040517fd6ceaa70000000000000000000000000000000000000000000000000000000008152918201849052602482018390526001600160a01b03169063d6ceaa70906044016020604051808303816000875af11580156116b3573d6000803e3d6000fd5b505050506040513d601f19601f820116820180604052508101906116d79190612aa1565b61171d576040517f16c63bb30000000000000000000000000000000000000000000000000000000081523360048201526024810183905260448101829052606401610760565b60408051338152602081018490529081018290527f5fee19f5bf8eb8b0af1645ea5d38435af21e550792658dd02025644dc1373ebf9060600160405180910390a15050565b60007fffffffff0000000000000000000000000000000000000000000000000000000082167f4e2312e000000000000000000000000000000000000000000000000000000000148061051c575061051c82611c18565b600480546040517fb176c59d00000000000000000000000000000000000000000000000000000000815291820183905260009182916001600160a01b03169063b176c59d906024016040805180830381865afa15801561181c573d6000803e3d6000fd5b505050506040513d601f19601f820116820180604052508101906118409190612b25565b9150915061185f30848360405180602001604052806000815250611cfb565b604080518082018252838152602080820184815260008781526007835284902092518355516001909201919091559051838152829185917f6846e129440de8eadb5860e065ac3b1f9d2108177bae63a5b76ec46c409ecfa091015b60405180910390a3505050565b6001600160a01b03841661190a576040517f57f447ce00000000000000000000000000000000000000000000000000000000815260006004820152602401610760565b6001600160a01b03851661194d576040517f01a8351400000000000000000000000000000000000000000000000000000000815260006004820152602401610760565b61195a8585858585611d6d565b5050505050565b6001600160a01b0384166119a4576040517f57f447ce00000000000000000000000000000000000000000000000000000000815260006004820152602401610760565b6001600160a01b0385166119e7576040517f01a8351400000000000000000000000000000000000000000000000000000000815260006004820152602401610760565b60408051600180825260208201869052818301908152606082018590526080820190925290611a198787848487611d6d565b50505050505050565b6000546001600160a01b03163314610f80576040517f118cdaa7000000000000000000000000000000000000000000000000000000008152336004820152602401610760565b600080546001600160a01b038381167fffffffffffffffffffffffff0000000000000000000000000000000000000000831681178455604051919092169283917f8be0079c531659141344cd1fd0a4f28419497f9722a3daafe3b4186f6b6457e09190a35050565b6001600160a01b038216611b13576040517fced3e10000000000000000000000000000000000000000000000000000000000815260006004820152602401610760565b6001600160a01b0383811660008181526002602090815260408083209487168084529482529182902080547fffffffffffffffffffffffffffffffffffffffffffffffffffffffffffffff001686151590811790915591519182527f17307eab39ab6107e8899845ad3d59bd9653f200f220920489ca2b5937696c3191016118ba565b6001600160a01b038316611bd9576040517f01a8351400000000000000000000000000000000000000000000000000000000815260006004820152602401610760565b604080516001808252602082018590528183019081526060820184905260a0820190925260006080820181815291929161195a91879185908590611d6d565b60007fffffffff0000000000000000000000000000000000000000000000000000000082167fd9b67a26000000000000000000000000000000000000000000000000000000001480611cab57507fffffffff0000000000000000000000000000000000000000000000000000000082167f0e89341c00000000000000000000000000000000000000000000000000000000145b8061051c57507f01ffc9a7000000000000000000000000000000000000000000000000000000007fffffffff0000000000000000000000000000000000000000000000000000000083161461051c565b6001600160a01b038416611d3e576040517f57f447ce00000000000000000000000000000000000000000000000000000000815260006004820152602401610760565b604080516001808252602082018690528183019081526060820185905260808201909252906107766000878484875b611d7985858585611dc0565b6001600160a01b0384161561195a5782513390600103611db25760208481015190840151611dab838989858589612015565b5050610776565b6107768187878787876121d3565b8051825114611e0857815181516040517f5b05999100000000000000000000000000000000000000000000000000000000815260048101929092526024820152604401610760565b3360005b8351811015611f36576020818102858101820151908501909101516001600160a01b03881615611edc5760008281526001602090815260408083206001600160a01b038c16845290915290205481811015611eb3576040517f03dee4c50000000000000000000000000000000000000000000000000000000081526001600160a01b038a166004820152602481018290526044810183905260648101849052608401610760565b60008381526001602090815260408083206001600160a01b038d16845290915290209082900390555b6001600160a01b03871615611f235760008281526001602090815260408083206001600160a01b038b16845290915281208054839290611f1d908490612b49565b90915550505b505080611f2f90612aed565b9050611e0c565b508251600103611fb75760208301516000906020840151909150856001600160a01b0316876001600160a01b0316846001600160a01b03167fc3d58168c5ae7397731d063d5bbf3d657854427343f4c083240f7aacaa2d0f628585604051611fa8929190918252602082015260400190565b60405180910390a4505061195a565b836001600160a01b0316856001600160a01b0316826001600160a01b03167f4a39dc06d4c0dbc64b70af90fd698a233a518aa5d07e595d983b8c0526c8f7fb8686604051612006929190612b5c565b60405180910390a45050505050565b6001600160a01b0384163b15610776576040517ff23a6e610000000000000000000000000000000000000000000000000000000081526001600160a01b0385169063f23a6e61906120729089908990889088908890600401612b8a565b6020604051808303816000875af19250505080156120cb575060408051601f3d9081017fffffffffffffffffffffffffffffffffffffffffffffffffffffffffffffffe01682019092526120c891810190612bcd565b60015b61214d573d8080156120f9576040519150601f19603f3d011682016040523d82523d6000602084013e6120fe565b606091505b508051600003612145576040517f57f447ce0000000000000000000000000000000000000000000000000000000081526001600160a01b0386166004820152602401610760565b805181602001fd5b7fffffffff0000000000000000000000000000000000000000000000000000000081167ff23a6e610000000000000000000000000000000000000000000000000000000014611a19576040517f57f447ce0000000000000000000000000000000000000000000000000000000081526001600160a01b0386166004820152602401610760565b6001600160a01b0384163b15610776576040517fbc197c810000000000000000000000000000000000000000000000000000000081526001600160a01b0385169063bc197c81906122309089908990889088908890600401612bea565b6020604051808303816000875af1925050508015612289575060408051601f3d9081017fffffffffffffffffffffffffffffffffffffffffffffffffffffffffffffffe016820190925261228691810190612bcd565b60015b6122b7573d8080156120f9576040519150601f19603f3d011682016040523d82523d6000602084013e6120fe565b7fffffffff0000000000000000000000000000000000000000000000000000000081167fbc197c810000000000000000000000000000000000000000000000000000000014611a19576040517f57f447ce0000000000000000000000000000000000000000000000000000000081526001600160a01b0386166004820152602401610760565b80356001600160a01b038116811461235457600080fd5b919050565b6000806040838503121561236c57600080fd5b6123758361233d565b946020939093013593505050565b7fffffffff00000000000000000000000000000000000000000000000000000000811681146114d457600080fd5b6000602082840312156123c357600080fd5b81356123ce81612383565b9392505050565b6000602082840312156123e757600080fd5b5035919050565b6000815180845260005b81811015612414576020818501810151868301820152016123f8565b5060006020828601015260207fffffffffffffffffffffffffffffffffffffffffffffffffffffffffffffffe0601f83011685010191505092915050565b6020815260006123ce60208301846123ee565b60008060008060006080868803121561247d57600080fd5b6124868661233d565b94506124946020870161233d565b935060408601359250606086013567ffffffffffffffff808211156124b857600080fd5b818801915088601f8301126124cc57600080fd5b8135818111156124db57600080fd5b8960208285010111156124ed57600080fd5b9699959850939650602001949392505050565b7f4e487b7100000000000000000000000000000000000000000000000000000000600052604160045260246000fd5b604051601f82017fffffffffffffffffffffffffffffffffffffffffffffffffffffffffffffffe016810167ffffffffffffffff8111828210171561257657612576612500565b604052919050565b600067ffffffffffffffff82111561259857612598612500565b5060051b60200190565b600082601f8301126125b357600080fd5b813560206125c86125c38361257e565b61252f565b82815260059290921b840181019181810190868411156125e757600080fd5b8286015b8481101561260257803583529183019183016125eb565b509695505050505050565b600082601f83011261261e57600080fd5b813567ffffffffffffffff81111561263857612638612500565b61266960207fffffffffffffffffffffffffffffffffffffffffffffffffffffffffffffffe0601f8401160161252f565b81815284602083860101111561267e57600080fd5b816020850160208301376000918101602001919091529392505050565b600080600080600060a086880312156126b357600080fd5b6126bc8661233d565b94506126ca6020870161233d565b9350604086013567ffffffffffffffff808211156126e757600080fd5b6126f389838a016125a2565b9450606088013591508082111561270957600080fd5b61271589838a016125a2565b9350608088013591508082111561272b57600080fd5b506127388882890161260d565b9150509295509295909350565b60008060006060848603121561275a57600080fd5b505081359360208301359350604090920135919050565b60008060006060848603121561278657600080fd5b61278f8461233d565b95602085013595506040909401359392505050565b600080604083850312156127b757600080fd5b823567ffffffffffffffff808211156127cf57600080fd5b818501915085601f8301126127e357600080fd5b813560206127f36125c38361257e565b82815260059290921b8401810191818101908984111561281257600080fd5b948201945b83861015612837576128288661233d565b82529482019490820190612817565b9650508601359250508082111561284d57600080fd5b5061285a858286016125a2565b9150509250929050565b600081518084526020808501945080840160005b8381101561289457815187529582019590820190600101612878565b509495945050505050565b6020815260006123ce6020830184612864565b600080604083850312156128c557600080fd5b823591506128d56020840161233d565b90509250929050565b80151581146114d457600080fd5b600080604083850312156128ff57600080fd5b6129088361233d565b91506020830135612918816128de565b809150509250929050565b60006020828403121561293557600080fd5b6123ce8261233d565b6000806040838503121561295157600080fd5b50508035926020909101359150565b6000806040838503121561297357600080fd5b61297c8361233d565b91506128d56020840161233d565b600080600080600060a086880312156129a257600080fd5b6129ab8661233d565b94506129b96020870161233d565b93506040860135925060608601359150608086013567ffffffffffffffff8111156129e357600080fd5b6127388882890161260d565b600181811c90821680612a0357607f821691505b602082108103612a3c577f4e487b7100000000000000000000000000000000000000000000000000000000600052602260045260246000fd5b50919050565b7f4e487b7100000000000000000000000000000000000000000000000000000000600052601160045260246000fd5b808202811582820484141761051c5761051c612a42565b600060208284031215612a9a57600080fd5b5051919050565b600060208284031215612ab357600080fd5b81516123ce816128de565b7f4e487b7100000000000000000000000000000000000000000000000000000000600052603260045260246000fd5b60007fffffffffffffffffffffffffffffffffffffffffffffffffffffffffffffffff8203612b1e57612b1e612a42565b5060010190565b60008060408385031215612b3857600080fd5b505080516020909101519092909150565b8082018082111561051c5761051c612a42565b604081526000612b6f6040830185612864565b8281036020840152612b818185612864565b95945050505050565b60006001600160a01b03808816835280871660208401525084604083015283606083015260a06080830152612bc260a08301846123ee565b979650505050505050565b600060208284031215612bdf57600080fd5b81516123ce81612383565b60006001600160a01b03808816835280871660208401525060a06040830152612c1660a0830186612864565b8281036060840152612c288186612864565b90508281036080840152612c3c81856123ee565b9897505050505050505056fea164736f6c6343000815000a",
    "linkReferences": {}
  },
  "methodIdentifiers": {
    "KYC(address)": "bd3b1046",
    "balanceOf(address,uint256)": "00fdd58e",
    "balanceOfBatch(address[],uint256[])": "4e1273f4",
    "buySecondary(address,uint256,uint256)": "3efcb0f5",
    "buyer(address)": "b7748208",
    "getOpenBuy(uint256)": "d98499f3",
    "getSecondaryMarket(uint256,address)": "5bc4dacd",
    "isApprovedForAll(address,address)": "e985e9c5",
    "onERC1155BatchReceived(address,address,uint256[],uint256[],bytes)": "bc197c81",
    "onERC1155Received(address,address,uint256,uint256,bytes)": "f23a6e61",
    "onERC721Received(address,address,uint256,bytes)": "150b7a02",
    "openBuy(uint256)": "0e372fc5",
    "owner()": "8da5cb5b",
    "purchasePrimary(uint256,uint256)": "d0a19852",
    "renounceOwnership()": "715018a6",
    "retrieveInvestment(uint256,uint256)": "feb8dc7c",
    "safeBatchTransferFrom(address,address,uint256[],uint256[],bytes)": "2eb2c2d6",
    "safeTransferFrom(address,address,uint256,uint256,bytes)": "f242432a",
    "secondaryMarket(uint256,address)": "5ad2dfed",
    "sellMyUnits(uint256,uint256,uint256)": "3c4ce768",
    "setApprovalForAll(address,bool)": "a22cb465",
    "setTreasury(address)": "f0f44260",
    "supportsInterface(bytes4)": "01ffc9a7",
    "transferOwnership(address)": "f2fde38b",
    "uri(uint256)": "0e89341c"
  },
  "id": 48
}