{
  "abi": [
    {
      "inputs": [
        {
          "internalType": "string",
          "name": "_name",
          "type": "string"
        },
        {
          "internalType": "string",
          "name": "_symbol",
          "type": "string"
        },
        {
          "internalType": "address",
          "name": "_openMarket",
          "type": "address"
        },
        {
          "internalType": "address",
          "name": "_wdrex",
          "type": "address"
        }
      ],
      "stateMutability": "nonpayable",
      "type": "constructor"
    },
    {
      "inputs": [],
      "name": "ApprovalCallerNotOwnerNorApproved",
      "type": "error"
    },
    {
      "inputs": [],
      "name": "ApprovalQueryForNonexistentToken",
      "type": "error"
    },
    {
      "inputs": [],
      "name": "BalanceQueryForZeroAddress",
      "type": "error"
    },
    {
      "inputs": [],
      "name": "MintERC2309QuantityExceedsLimit",
      "type": "error"
    },
    {
      "inputs": [],
      "name": "MintToZeroAddress",
      "type": "error"
    },
    {
      "inputs": [],
      "name": "MintZeroQuantity",
      "type": "error"
    },
    {
      "inputs": [],
      "name": "NotEmitter",
      "type": "error"
    },
    {
      "inputs": [],
      "name": "NotKYCed",
      "type": "error"
    },
    {
      "inputs": [],
      "name": "NotValidTreasuryType",
      "type": "error"
    },
    {
      "inputs": [
        {
          "internalType": "address",
          "name": "owner",
          "type": "address"
        }
      ],
      "name": "OwnableInvalidOwner",
      "type": "error"
    },
    {
      "inputs": [
        {
          "internalType": "address",
          "name": "account",
          "type": "address"
        }
      ],
      "name": "OwnableUnauthorizedAccount",
      "type": "error"
    },
    {
      "inputs": [],
      "name": "OwnerQueryForNonexistentToken",
      "type": "error"
    },
    {
      "inputs": [],
      "name": "OwnershipNotInitializedForExtraData",
      "type": "error"
    },
    {
      "inputs": [],
      "name": "TransferCallerNotOwnerNorApproved",
      "type": "error"
    },
    {
      "inputs": [],
      "name": "TransferFromIncorrectOwner",
      "type": "error"
    },
    {
      "inputs": [],
      "name": "TransferToNonERC721ReceiverImplementer",
      "type": "error"
    },
    {
      "inputs": [],
      "name": "TransferToZeroAddress",
      "type": "error"
    },
    {
      "inputs": [],
      "name": "URIQueryForNonexistentToken",
      "type": "error"
    },
    {
      "inputs": [
        {
          "internalType": "address",
          "name": "_sender",
          "type": "address"
        }
      ],
      "name": "notOpenMarketContract",
      "type": "error"
    },
    {
      "anonymous": false,
      "inputs": [
        {
          "indexed": true,
          "internalType": "address",
          "name": "owner",
          "type": "address"
        },
        {
          "indexed": true,
          "internalType": "address",
          "name": "approved",
          "type": "address"
        },
        {
          "indexed": true,
          "internalType": "uint256",
          "name": "tokenId",
          "type": "uint256"
        }
      ],
      "name": "Approval",
      "type": "event"
    },
    {
      "anonymous": false,
      "inputs": [
        {
          "indexed": true,
          "internalType": "address",
          "name": "owner",
          "type": "address"
        },
        {
          "indexed": true,
          "internalType": "address",
          "name": "operator",
          "type": "address"
        },
        {
          "indexed": false,
          "internalType": "bool",
          "name": "approved",
          "type": "bool"
        }
      ],
      "name": "ApprovalForAll",
      "type": "event"
    },
    {
      "anonymous": false,
      "inputs": [
        {
          "indexed": true,
          "internalType": "uint256",
          "name": "fromTokenId",
          "type": "uint256"
        },
        {
          "indexed": false,
          "internalType": "uint256",
          "name": "toTokenId",
          "type": "uint256"
        },
        {
          "indexed": true,
          "internalType": "address",
          "name": "from",
          "type": "address"
        },
        {
          "indexed": true,
          "internalType": "address",
          "name": "to",
          "type": "address"
        }
      ],
      "name": "ConsecutiveTransfer",
      "type": "event"
    },
    {
      "anonymous": false,
      "inputs": [
        {
          "indexed": true,
          "internalType": "address",
          "name": "previousOwner",
          "type": "address"
        },
        {
          "indexed": true,
          "internalType": "address",
          "name": "newOwner",
          "type": "address"
        }
      ],
      "name": "OwnershipTransferred",
      "type": "event"
    },
    {
      "anonymous": false,
      "inputs": [
        {
          "indexed": true,
          "internalType": "address",
          "name": "from",
          "type": "address"
        },
        {
          "indexed": true,
          "internalType": "address",
          "name": "to",
          "type": "address"
        },
        {
          "indexed": true,
          "internalType": "uint256",
          "name": "tokenId",
          "type": "uint256"
        }
      ],
      "name": "Transfer",
      "type": "event"
    },
    {
      "anonymous": false,
      "inputs": [
        {
          "indexed": true,
          "internalType": "uint256",
          "name": "_totalValue",
          "type": "uint256"
        },
        {
          "indexed": true,
          "internalType": "uint256",
          "name": "_apy",
          "type": "uint256"
        },
        {
          "indexed": true,
          "internalType": "uint256",
          "name": "_duration",
          "type": "uint256"
        },
        {
          "indexed": false,
          "internalType": "enum tesouroDireto.treasuryType",
          "name": "",
          "type": "uint8"
        }
      ],
      "name": "treasuryCreated",
      "type": "event"
    },
    {
      "inputs": [
        {
          "internalType": "address",
          "name": "to",
          "type": "address"
        },
        {
          "internalType": "uint256",
          "name": "tokenId",
          "type": "uint256"
        }
      ],
      "name": "approve",
      "outputs": [],
      "stateMutability": "payable",
      "type": "function"
    },
    {
      "inputs": [
        {
          "internalType": "address",
          "name": "owner",
          "type": "address"
        }
      ],
      "name": "balanceOf",
      "outputs": [
        {
          "internalType": "uint256",
          "name": "",
          "type": "uint256"
        }
      ],
      "stateMutability": "view",
      "type": "function"
    },
    {
      "inputs": [
        {
          "components": [
            {
              "internalType": "enum tesouroDireto.treasuryType",
              "name": "_type",
              "type": "uint8"
            },
            {
              "internalType": "uint24",
              "name": "_apy",
              "type": "uint24"
            },
            {
              "internalType": "uint256",
              "name": "_minInvestment",
              "type": "uint256"
            },
            {
              "internalType": "uint256",
              "name": "_validThru",
              "type": "uint256"
            },
            {
              "internalType": "uint256",
              "name": "_avlbTokens",
              "type": "uint256"
            },
            {
              "internalType": "uint256",
              "name": "_creation",
              "type": "uint256"
            }
          ],
          "internalType": "struct tesouroDireto.treasuryData",
          "name": "_data",
          "type": "tuple"
        }
      ],
      "name": "emitTreasury",
      "outputs": [],
      "stateMutability": "nonpayable",
      "type": "function"
    },
    {
      "inputs": [],
      "name": "emitter",
      "outputs": [
        {
          "internalType": "address",
          "name": "",
          "type": "address"
        }
      ],
      "stateMutability": "view",
      "type": "function"
    },
    {
      "inputs": [
        {
          "internalType": "uint256",
          "name": "tokenId",
          "type": "uint256"
        }
      ],
      "name": "getApproved",
      "outputs": [
        {
          "internalType": "address",
          "name": "",
          "type": "address"
        }
      ],
      "stateMutability": "view",
      "type": "function"
    },
    {
      "inputs": [
        {
          "internalType": "uint256",
          "name": "_tokenId",
          "type": "uint256"
        }
      ],
      "name": "getPriceAmount",
      "outputs": [
        {
          "internalType": "uint256",
          "name": "_price",
          "type": "uint256"
        },
        {
          "internalType": "uint256",
          "name": "_amount",
          "type": "uint256"
        }
      ],
      "stateMutability": "view",
      "type": "function"
    },
    {
      "inputs": [
        {
          "internalType": "uint256",
          "name": "_tokenId",
          "type": "uint256"
        }
      ],
      "name": "getTokenInfo",
      "outputs": [
        {
          "internalType": "uint24",
          "name": "_apy",
          "type": "uint24"
        },
        {
          "internalType": "uint256",
          "name": "_validThru",
          "type": "uint256"
        },
        {
          "internalType": "uint256",
          "name": "_price",
          "type": "uint256"
        },
        {
          "internalType": "uint256",
          "name": "_creation",
          "type": "uint256"
        }
      ],
      "stateMutability": "view",
      "type": "function"
    },
    {
      "inputs": [
        {
          "internalType": "address",
          "name": "owner",
          "type": "address"
        },
        {
          "internalType": "address",
          "name": "operator",
          "type": "address"
        }
      ],
      "name": "isApprovedForAll",
      "outputs": [
        {
          "internalType": "bool",
          "name": "",
          "type": "bool"
        }
      ],
      "stateMutability": "view",
      "type": "function"
    },
    {
      "inputs": [],
      "name": "name",
      "outputs": [
        {
          "internalType": "string",
          "name": "",
          "type": "string"
        }
      ],
      "stateMutability": "view",
      "type": "function"
    },
    {
      "inputs": [
        {
          "internalType": "address",
          "name": "operator",
          "type": "address"
        },
        {
          "internalType": "address",
          "name": "from",
          "type": "address"
        },
        {
          "internalType": "uint256",
          "name": "tokenId",
          "type": "uint256"
        },
        {
          "internalType": "bytes",
          "name": "data",
          "type": "bytes"
        }
      ],
      "name": "onERC721Received",
      "outputs": [
        {
          "internalType": "bytes4",
          "name": "",
          "type": "bytes4"
        }
      ],
      "stateMutability": "nonpayable",
      "type": "function"
    },
    {
      "inputs": [],
      "name": "openMarket",
      "outputs": [
        {
          "internalType": "address",
          "name": "",
          "type": "address"
        }
      ],
      "stateMutability": "view",
      "type": "function"
    },
    {
      "inputs": [
        {
          "internalType": "uint256",
          "name": "_tokenId",
          "type": "uint256"
        }
      ],
      "name": "openPublicOffer",
      "outputs": [],
      "stateMutability": "nonpayable",
      "type": "function"
    },
    {
      "inputs": [],
      "name": "owner",
      "outputs": [
        {
          "internalType": "address",
          "name": "",
          "type": "address"
        }
      ],
      "stateMutability": "view",
      "type": "function"
    },
    {
      "inputs": [
        {
          "internalType": "uint256",
          "name": "tokenId",
          "type": "uint256"
        }
      ],
      "name": "ownerOf",
      "outputs": [
        {
          "internalType": "address",
          "name": "",
          "type": "address"
        }
      ],
      "stateMutability": "view",
      "type": "function"
    },
    {
      "inputs": [],
      "name": "renounceOwnership",
      "outputs": [],
      "stateMutability": "nonpayable",
      "type": "function"
    },
    {
      "inputs": [
        {
          "internalType": "uint256",
          "name": "_tokenId",
          "type": "uint256"
        },
        {
          "internalType": "uint256",
          "name": "_amount",
          "type": "uint256"
        }
      ],
      "name": "retrievePartialInvestment",
      "outputs": [
        {
          "internalType": "bool",
          "name": "",
          "type": "bool"
        }
      ],
      "stateMutability": "nonpayable",
      "type": "function"
    },
    {
      "inputs": [
        {
          "internalType": "uint256",
          "name": "_tokenId",
          "type": "uint256"
        },
        {
          "internalType": "uint256",
          "name": "_amount",
          "type": "uint256"
        }
      ],
      "name": "retriveFullInvestment",
      "outputs": [
        {
          "internalType": "bool",
          "name": "",
          "type": "bool"
        }
      ],
      "stateMutability": "nonpayable",
      "type": "function"
    },
    {
      "inputs": [
        {
          "internalType": "address",
          "name": "from",
          "type": "address"
        },
        {
          "internalType": "address",
          "name": "to",
          "type": "address"
        },
        {
          "internalType": "uint256",
          "name": "tokenId",
          "type": "uint256"
        }
      ],
      "name": "safeTransferFrom",
      "outputs": [],
      "stateMutability": "payable",
      "type": "function"
    },
    {
      "inputs": [
        {
          "internalType": "address",
          "name": "from",
          "type": "address"
        },
        {
          "internalType": "address",
          "name": "to",
          "type": "address"
        },
        {
          "internalType": "uint256",
          "name": "tokenId",
          "type": "uint256"
        },
        {
          "internalType": "bytes",
          "name": "_data",
          "type": "bytes"
        }
      ],
      "name": "safeTransferFrom",
      "outputs": [],
      "stateMutability": "payable",
      "type": "function"
    },
    {
      "inputs": [
        {
          "internalType": "address",
          "name": "operator",
          "type": "address"
        },
        {
          "internalType": "bool",
          "name": "approved",
          "type": "bool"
        }
      ],
      "name": "setApprovalForAll",
      "outputs": [],
      "stateMutability": "nonpayable",
      "type": "function"
    },
    {
      "inputs": [
        {
          "internalType": "address",
          "name": "_newemmit",
          "type": "address"
        }
      ],
      "name": "setEmmiter",
      "outputs": [],
      "stateMutability": "nonpayable",
      "type": "function"
    },
    {
      "inputs": [
        {
          "internalType": "bytes4",
          "name": "interfaceId",
          "type": "bytes4"
        }
      ],
      "name": "supportsInterface",
      "outputs": [
        {
          "internalType": "bool",
          "name": "",
          "type": "bool"
        }
      ],
      "stateMutability": "view",
      "type": "function"
    },
    {
      "inputs": [],
      "name": "symbol",
      "outputs": [
        {
          "internalType": "string",
          "name": "",
          "type": "string"
        }
      ],
      "stateMutability": "view",
      "type": "function"
    },
    {
      "inputs": [
        {
          "internalType": "uint256",
          "name": "",
          "type": "uint256"
        }
      ],
      "name": "tokenInfo",
      "outputs": [
        {
          "internalType": "enum tesouroDireto.treasuryType",
          "name": "_type",
          "type": "uint8"
        },
        {
          "internalType": "uint24",
          "name": "_apy",
          "type": "uint24"
        },
        {
          "internalType": "uint256",
          "name": "_minInvestment",
          "type": "uint256"
        },
        {
          "internalType": "uint256",
          "name": "_validThru",
          "type": "uint256"
        },
        {
          "internalType": "uint256",
          "name": "_avlbTokens",
          "type": "uint256"
        },
        {
          "internalType": "uint256",
          "name": "_creation",
          "type": "uint256"
        }
      ],
      "stateMutability": "view",
      "type": "function"
    },
    {
      "inputs": [
        {
          "internalType": "uint256",
          "name": "tokenId",
          "type": "uint256"
        }
      ],
      "name": "tokenURI",
      "outputs": [
        {
          "internalType": "string",
          "name": "",
          "type": "string"
        }
      ],
      "stateMutability": "view",
      "type": "function"
    },
    {
      "inputs": [],
      "name": "totalSupply",
      "outputs": [
        {
          "internalType": "uint256",
          "name": "",
          "type": "uint256"
        }
      ],
      "stateMutability": "view",
      "type": "function"
    },
    {
      "inputs": [
        {
          "internalType": "address",
          "name": "from",
          "type": "address"
        },
        {
          "internalType": "address",
          "name": "to",
          "type": "address"
        },
        {
          "internalType": "uint256",
          "name": "tokenId",
          "type": "uint256"
        }
      ],
      "name": "transferFrom",
      "outputs": [],
      "stateMutability": "payable",
      "type": "function"
    },
    {
      "inputs": [
        {
          "internalType": "address",
          "name": "newOwner",
          "type": "address"
        }
      ],
      "name": "transferOwnership",
      "outputs": [],
      "stateMutability": "nonpayable",
      "type": "function"
    }
  ],
  "bytecode": {
    "object": "0x60806040523480156200001157600080fd5b506040516200298338038062002983833981016040819052620000349162000294565b3384846002620000458382620003b2565b506003620000548282620003b2565b506000805550506001600160a01b0381166200008a57604051631e4fbdf760e01b81526000600482015260240160405180910390fd5b620000958162000160565b5060098054336001600160a01b031991821681179092556000918252600a60205260408220805460ff1990811660019081179092557f68a236bdaf4f5728dabd191202112eb2a5f92eb8333b41181a440ea157970298805482168317905573f58b1eb6b61444dca38a2fffc03ff59cea2b2fa19093527f91281387ed3ba86c7afa461bef0eb05145c5089bc23c62f3fafa71f0b3dda444805490931617909155600b805482166001600160a01b03948516179055600c805490911691909216179055506200047e9050565b600880546001600160a01b038381166001600160a01b0319831681179093556040519116919082907f8be0079c531659141344cd1fd0a4f28419497f9722a3daafe3b4186f6b6457e090600090a35050565b634e487b7160e01b600052604160045260246000fd5b600082601f830112620001da57600080fd5b81516001600160401b0380821115620001f757620001f7620001b2565b604051601f8301601f19908116603f01168101908282118183101715620002225762000222620001b2565b816040528381526020925086838588010111156200023f57600080fd5b600091505b8382101562000263578582018301518183018401529082019062000244565b600093810190920192909252949350505050565b80516001600160a01b03811681146200028f57600080fd5b919050565b60008060008060808587031215620002ab57600080fd5b84516001600160401b0380821115620002c357600080fd5b620002d188838901620001c8565b95506020870151915080821115620002e857600080fd5b50620002f787828801620001c8565b935050620003086040860162000277565b9150620003186060860162000277565b905092959194509250565b600181811c908216806200033857607f821691505b6020821081036200035957634e487b7160e01b600052602260045260246000fd5b50919050565b601f821115620003ad57600081815260208120601f850160051c81016020861015620003885750805b601f850160051c820191505b81811015620003a95782815560010162000394565b5050505b505050565b81516001600160401b03811115620003ce57620003ce620001b2565b620003e681620003df845462000323565b846200035f565b602080601f8311600181146200041e5760008415620004055750858301515b600019600386901b1c1916600185901b178555620003a9565b600085815260208120601f198616915b828110156200044f578886015182559484019460019091019084016200042e565b50858210156200046e5787850151600019600388901b60f8161c191681555b5050505050600190811b01905550565b6124f5806200048e6000396000f3fe6080604052600436106101b75760003560e01c80638c7a63ae116100ec578063c87b56dd1161008a578063dce1137511610064578063dce11375146105e8578063e985e9c514610615578063f2fde38b1461066b578063fdddaff31461068b57600080fd5b8063c87b56dd14610541578063cc33c87514610561578063d6ceaa70146105c857600080fd5b8063a22cb465116100c6578063a22cb465146104a1578063a768ef65146104c1578063b176c59d146104e1578063b88d4fde1461052e57600080fd5b80638c7a63ae146103ee5780638da5cb5b1461046157806395d89b411461048c57600080fd5b806323b872dd116101595780635cd0ea89116101335780635cd0ea89146103795780636352211e1461039957806370a08231146103b9578063715018a6146103d957600080fd5b806323b872dd146103265780633606f5b91461033957806342842e0e1461036657600080fd5b8063095ea7b311610195578063095ea7b314610258578063150b7a021461026d57806318160ddd146102e3578063181b22351461030657600080fd5b806301ffc9a7146101bc57806306fdde03146101f1578063081812fc14610213575b600080fd5b3480156101c857600080fd5b506101dc6101d7366004611df4565b6106ae565b60405190151581526020015b60405180910390f35b3480156101fd57600080fd5b50610206610793565b6040516101e89190611e7f565b34801561021f57600080fd5b5061023361022e366004611e92565b610825565b60405173ffffffffffffffffffffffffffffffffffffffff90911681526020016101e8565b61026b610266366004611ed4565b61088f565b005b34801561027957600080fd5b506102b2610288366004611efe565b7f150b7a020000000000000000000000000000000000000000000000000000000095945050505050565b6040517fffffffff0000000000000000000000000000000000000000000000000000000090911681526020016101e8565b3480156102ef57600080fd5b50600154600054035b6040519081526020016101e8565b34801561031257600080fd5b5061026b610321366004611f99565b61097a565b61026b610334366004611fb4565b6109d1565b34801561034557600080fd5b50600b546102339073ffffffffffffffffffffffffffffffffffffffff1681565b61026b610374366004611fb4565b610c84565b34801561038557600080fd5b5061026b610394366004611e92565b610ca4565b3480156103a557600080fd5b506102336103b4366004611e92565b610e32565b3480156103c557600080fd5b506102f86103d4366004611f99565b610e3d565b3480156103e557600080fd5b5061026b610ebf565b3480156103fa57600080fd5b5061043b610409366004611e92565b6000908152600d6020526040902080546002820154600183015460049093015461010090920462ffffff169390929190565b6040805162ffffff909516855260208501939093529183015260608201526080016101e8565b34801561046d57600080fd5b5060085473ffffffffffffffffffffffffffffffffffffffff16610233565b34801561049857600080fd5b50610206610ed3565b3480156104ad57600080fd5b5061026b6104bc366004611ffe565b610ee2565b3480156104cd57600080fd5b5061026b6104dc3660046120dc565b610f79565b3480156104ed57600080fd5b506105196104fc366004611e92565b6000908152600d6020526040902060018101546003909101549091565b604080519283526020830191909152016101e8565b61026b61053c366004612156565b61127f565b34801561054d57600080fd5b5061020661055c366004611e92565b6112ef565b34801561056d57600080fd5b506105b661057c366004611e92565b600d602052600090815260409020805460018201546002830154600384015460049094015460ff84169461010090940462ffffff16939086565b6040516101e89695949392919061229e565b3480156105d457600080fd5b506101dc6105e33660046122d9565b611399565b3480156105f457600080fd5b506009546102339073ffffffffffffffffffffffffffffffffffffffff1681565b34801561062157600080fd5b506101dc6106303660046122fb565b73ffffffffffffffffffffffffffffffffffffffff918216600090815260076020908152604080832093909416825291909152205460ff1690565b34801561067757600080fd5b5061026b610686366004611f99565b611774565b34801561069757600080fd5b506101dc6106a63660046122d9565b600192915050565b60007f01ffc9a7000000000000000000000000000000000000000000000000000000007fffffffff000000000000000000000000000000000000000000000000000000008316148061074157507f80ac58cd000000000000000000000000000000000000000000000000000000007fffffffff000000000000000000000000000000000000000000000000000000008316145b8061078d57507f5b5e139f000000000000000000000000000000000000000000000000000000007fffffffff000000000000000000000000000000000000000000000000000000008316145b92915050565b6060600280546107a29061232e565b80601f01602080910402602001604051908101604052809291908181526020018280546107ce9061232e565b801561081b5780601f106107f05761010080835404028352916020019161081b565b820191906000526020600020905b8154815290600101906020018083116107fe57829003601f168201915b5050505050905090565b6000610830826117d5565b610866576040517fcf4700e400000000000000000000000000000000000000000000000000000000815260040160405180910390fd5b5060009081526006602052604090205473ffffffffffffffffffffffffffffffffffffffff1690565b600061089a82610e32565b90503373ffffffffffffffffffffffffffffffffffffffff8216146108f9576108c38133610630565b6108f9576040517fcfb3b94200000000000000000000000000000000000000000000000000000000815260040160405180910390fd5b60008281526006602052604080822080547fffffffffffffffffffffffff00000000000000000000000000000000000000001673ffffffffffffffffffffffffffffffffffffffff87811691821790925591518593918516917f8c5be1e5ebec7d5bd14f71427d1e84f3dd0314c0f7b2291e5b200ac8c7c3b92591a4505050565b610982611815565b73ffffffffffffffffffffffffffffffffffffffff166000908152600a6020526040902080547fffffffffffffffffffffffffffffffffffffffffffffffffffffffffffffff00166001179055565b60006109dc82611868565b90508373ffffffffffffffffffffffffffffffffffffffff168173ffffffffffffffffffffffffffffffffffffffff1614610a43576040517fa114810000000000000000000000000000000000000000000000000000000000815260040160405180910390fd5b600082815260066020526040902080543380821473ffffffffffffffffffffffffffffffffffffffff881690911417610ab657610a808633610630565b610ab6576040517f59c896be00000000000000000000000000000000000000000000000000000000815260040160405180910390fd5b73ffffffffffffffffffffffffffffffffffffffff8516610b03576040517fea553b3400000000000000000000000000000000000000000000000000000000815260040160405180910390fd5b8015610b0e57600082555b73ffffffffffffffffffffffffffffffffffffffff86811660009081526005602052604080822080547fffffffffffffffffffffffffffffffffffffffffffffffffffffffffffffffff019055918716808252919020805460010190554260a01b7fffffff0000000000000000000000000000000000000000000000000000000000851617177c0200000000000000000000000000000000000000000000000000000000176000858152600460205260408120919091557c020000000000000000000000000000000000000000000000000000000084169003610c2157600184016000818152600460205260408120549003610c1f576000548114610c1f5760008181526004602052604090208490555b505b838573ffffffffffffffffffffffffffffffffffffffff168773ffffffffffffffffffffffffffffffffffffffff167fddf252ad1be2c89b69c2b068fc378daa952ba7f163c4a11628f55a4df523b3ef60405160405180910390a4505050505050565b610c9f8383836040518060200160405280600081525061127f565b505050565b336000908152600a602052604090205460ff161515600114610d27576040517f08c379a000000000000000000000000000000000000000000000000000000000815260206004820152600960248201527f4e4f74456d6d697465000000000000000000000000000000000000000000000060448201526064015b60405180910390fd5b30610d3182610e32565b73ffffffffffffffffffffffffffffffffffffffff1614610dd4576040517f08c379a000000000000000000000000000000000000000000000000000000000815260206004820152602a60248201527f5465736f75726f2044697265746f203a204e6f7420696e20747265617375727960448201527f206f776e657273686970000000000000000000000000000000000000000000006064820152608401610d1e565b600081815260066020526040902080547fffffffffffffffffffffffff00000000000000000000000000000000000000001633179055600b54610e2f90309073ffffffffffffffffffffffffffffffffffffffff1683610c84565b50565b600061078d82611868565b600073ffffffffffffffffffffffffffffffffffffffff8216610e8c576040517f8f4eb60400000000000000000000000000000000000000000000000000000000815260040160405180910390fd5b5073ffffffffffffffffffffffffffffffffffffffff1660009081526005602052604090205467ffffffffffffffff1690565b610ec7611815565b610ed1600061191f565b565b6060600380546107a29061232e565b33600081815260076020908152604080832073ffffffffffffffffffffffffffffffffffffffff87168085529083529281902080547fffffffffffffffffffffffffffffffffffffffffffffffffffffffffffffff001686151590811790915590519081529192917f17307eab39ab6107e8899845ad3d59bd9653f200f220920489ca2b5937696c31910160405180910390a35050565b336000908152600a602052604090205460ff161515600114610ff7576040517f08c379a000000000000000000000000000000000000000000000000000000000815260206004820152600960248201527f4e4f74456d6d69746500000000000000000000000000000000000000000000006044820152606401610d1e565b4260a082015280600d600061100b60005490565b815260208101919091526040016000208151815482907fffffffffffffffffffffffffffffffffffffffffffffffffffffffffffffff0016600183600481111561105757611057612234565b02179055506020820151815462ffffff909116610100027fffffffffffffffffffffffffffffffffffffffffffffffffffffffff000000ff90911617815560408201516001820155606082015160028201556080820151600382015560a0909101516004909101556000815160048111156110d4576110d4612234565b0361111b576110f430600160405180602001604052806000815250611996565b611116600161110260005490565b61110c91906123b0565b8260200151611a29565b611221565b60018151600481111561113057611130612234565b03611150576110f430600160405180602001604052806000815250611996565b60028151600481111561116557611165612234565b03611185576110f430600160405180602001604052806000815250611996565b60038151600481111561119a5761119a612234565b036111ba576110f430600160405180602001604052806000815250611996565b6004815160048111156111cf576111cf612234565b036111ef576110f430600160405180602001604052806000815250611996565b6040517f46c371fa00000000000000000000000000000000000000000000000000000000815260040160405180910390fd5b8060600151816020015162ffffff168260400151836080015161124491906123c3565b83516040517fe9c0a77d0c08cee56e6e88ce7ffdcd59129ee363214ae939f64009951413a0d291611274916123da565b60405180910390a450565b61128a8484846109d1565b73ffffffffffffffffffffffffffffffffffffffff83163b156112e9576112b384848484611aad565b6112e9576040517fd1a57ed600000000000000000000000000000000000000000000000000000000815260040160405180910390fd5b50505050565b60606112fa826117d5565b611330576040517fa14c4b5000000000000000000000000000000000000000000000000000000000815260040160405180910390fd5b600061134760408051602081019091526000815290565b905080516000036113675760405180602001604052806000815250611392565b8061137184611c26565b6040516020016113829291906123e8565b6040516020818303038152906040525b9392505050565b600b5460009073ffffffffffffffffffffffffffffffffffffffff1633146113ef576040517fd9e17650000000000000000000000000000000000000000000000000000000008152336004820152602401610d1e565b60008060008061142b876000908152600d6020526040902080546002820154600183015460049093015461010090920462ffffff169390929190565b9350935093509350828161143f9190612417565b4210156114ce576040517f08c379a000000000000000000000000000000000000000000000000000000000815260206004820152603060248201527f5465736f75726f2044697265746f203a2043616e6e6f7420726574726965766560448201527f2066756c6c20616d6f756e7420796574000000000000000000000000000000006064820152608401610d1e565b600061271062ffffff86166114e76301e133808761242a565b6114f18a876123c3565b6114fb91906123c3565b61150591906123c3565b61150f919061242a565b600c546040517f23b872dd00000000000000000000000000000000000000000000000000000000815273ffffffffffffffffffffffffffffffffffffffff90911660048201819052306024830152604482018390529192506323b872dd906064016020604051808303816000875af115801561158f573d6000803e3d6000fd5b505050506040513d601f19601f820116820180604052508101906115b39190612465565b61163f576040517f08c379a000000000000000000000000000000000000000000000000000000000815260206004820152602760248201527f5465736f75726f2044697265746f203a2052657472696576616c206e6f74207060448201527f6f737369626c65000000000000000000000000000000000000000000000000006064820152608401610d1e565b600c546040517fa9059cbb0000000000000000000000000000000000000000000000000000000081523260048201526024810183905273ffffffffffffffffffffffffffffffffffffffff9091169063a9059cbb906044016020604051808303816000875af11580156116b6573d6000803e3d6000fd5b505050506040513d601f19601f820116820180604052508101906116da9190612465565b611766576040517f08c379a000000000000000000000000000000000000000000000000000000000815260206004820152602760248201527f5465736f75726f2044697265746f203a2052657472696576616c206e6f74207060448201527f6f737369626c65000000000000000000000000000000000000000000000000006064820152608401610d1e565b506001979650505050505050565b61177c611815565b73ffffffffffffffffffffffffffffffffffffffff81166117cc576040517f1e4fbdf700000000000000000000000000000000000000000000000000000000815260006004820152602401610d1e565b610e2f8161191f565b600080548210801561078d5750506000908152600460205260409020547c0100000000000000000000000000000000000000000000000000000000161590565b60085473ffffffffffffffffffffffffffffffffffffffff163314610ed1576040517f118cdaa7000000000000000000000000000000000000000000000000000000008152336004820152602401610d1e565b6000816000548110156118ed57600081815260046020526040812054907c0100000000000000000000000000000000000000000000000000000000821690036118eb575b8060000361139257507fffffffffffffffffffffffffffffffffffffffffffffffffffffffffffffffff016000818152600460205260409020546118ac565b505b6040517fdf2d9b4200000000000000000000000000000000000000000000000000000000815260040160405180910390fd5b6008805473ffffffffffffffffffffffffffffffffffffffff8381167fffffffffffffffffffffffff0000000000000000000000000000000000000000831681179093556040519116919082907f8be0079c531659141344cd1fd0a4f28419497f9722a3daafe3b4186f6b6457e090600090a35050565b6119a08383611c88565b73ffffffffffffffffffffffffffffffffffffffff83163b15610c9f576000548281035b6119d76000868380600101945086611aad565b611a0d576040517fd1a57ed600000000000000000000000000000000000000000000000000000000815260040160405180910390fd5b8181106119c4578160005414611a2257600080fd5b5050505050565b60008281526004602052604081205490819003611a71576040517ed5815300000000000000000000000000000000000000000000000000000000815260040160405180910390fd5b6000928352600460205260409092207cffffffffffffffffffffffffffffffffffffffffffffffffffffffffff9290921660e89190911b179055565b6040517f150b7a0200000000000000000000000000000000000000000000000000000000815260009073ffffffffffffffffffffffffffffffffffffffff85169063150b7a0290611b08903390899088908890600401612482565b6020604051808303816000875af1925050508015611b61575060408051601f3d9081017fffffffffffffffffffffffffffffffffffffffffffffffffffffffffffffffe0168201909252611b5e918101906124cb565b60015b611bd8573d808015611b8f576040519150601f19603f3d011682016040523d82523d6000602084013e611b94565b606091505b508051600003611bd0576040517fd1a57ed600000000000000000000000000000000000000000000000000000000815260040160405180910390fd5b805181602001fd5b7fffffffff00000000000000000000000000000000000000000000000000000000167f150b7a0200000000000000000000000000000000000000000000000000000000149050949350505050565b606060a06040510180604052602081039150506000815280825b600183039250600a81066030018353600a900480611c4057508190037fffffffffffffffffffffffffffffffffffffffffffffffffffffffffffffffe0909101908152919050565b6000805490829003611cc6576040517fb562e8dd00000000000000000000000000000000000000000000000000000000815260040160405180910390fd5b73ffffffffffffffffffffffffffffffffffffffff831660008181526005602090815260408083208054680100000000000000018802019055848352600490915281206001851460e11b4260a01b178317905582840190839083907fddf252ad1be2c89b69c2b068fc378daa952ba7f163c4a11628f55a4df523b3ef8180a4600183015b818114611d8257808360007fddf252ad1be2c89b69c2b068fc378daa952ba7f163c4a11628f55a4df523b3ef600080a4600101611d4a565b5081600003611dbd576040517f2e07630000000000000000000000000000000000000000000000000000000000815260040160405180910390fd5b60005550505050565b7fffffffff0000000000000000000000000000000000000000000000000000000081168114610e2f57600080fd5b600060208284031215611e0657600080fd5b813561139281611dc6565b60005b83811015611e2c578181015183820152602001611e14565b50506000910152565b60008151808452611e4d816020860160208601611e11565b601f017fffffffffffffffffffffffffffffffffffffffffffffffffffffffffffffffe0169290920160200192915050565b6020815260006113926020830184611e35565b600060208284031215611ea457600080fd5b5035919050565b803573ffffffffffffffffffffffffffffffffffffffff81168114611ecf57600080fd5b919050565b60008060408385031215611ee757600080fd5b611ef083611eab565b946020939093013593505050565b600080600080600060808688031215611f1657600080fd5b611f1f86611eab565b9450611f2d60208701611eab565b935060408601359250606086013567ffffffffffffffff80821115611f5157600080fd5b818801915088601f830112611f6557600080fd5b813581811115611f7457600080fd5b896020828501011115611f8657600080fd5b9699959850939650602001949392505050565b600060208284031215611fab57600080fd5b61139282611eab565b600080600060608486031215611fc957600080fd5b611fd284611eab565b9250611fe060208501611eab565b9150604084013590509250925092565b8015158114610e2f57600080fd5b6000806040838503121561201157600080fd5b61201a83611eab565b9150602083013561202a81611ff0565b809150509250929050565b7f4e487b7100000000000000000000000000000000000000000000000000000000600052604160045260246000fd5b60405160c0810167ffffffffffffffff8111828210171561208757612087612035565b60405290565b604051601f82017fffffffffffffffffffffffffffffffffffffffffffffffffffffffffffffffe016810167ffffffffffffffff811182821017156120d4576120d4612035565b604052919050565b600060c082840312156120ee57600080fd5b6120f6612064565b82356005811061210557600080fd5b8152602083013562ffffff8116811461211d57600080fd5b8060208301525060408301356040820152606083013560608201526080830135608082015260a083013560a08201528091505092915050565b6000806000806080858703121561216c57600080fd5b61217585611eab565b93506020612184818701611eab565b935060408601359250606086013567ffffffffffffffff808211156121a857600080fd5b818801915088601f8301126121bc57600080fd5b8135818111156121ce576121ce612035565b6121fe847fffffffffffffffffffffffffffffffffffffffffffffffffffffffffffffffe0601f8401160161208d565b9150808252898482850101111561221457600080fd5b808484018584013760008482840101525080935050505092959194509250565b7f4e487b7100000000000000000000000000000000000000000000000000000000600052602160045260246000fd5b6005811061229a577f4e487b7100000000000000000000000000000000000000000000000000000000600052602160045260246000fd5b9052565b60c081016122ac8289612263565b62ffffff96909616602082015260408101949094526060840192909252608083015260a090910152919050565b600080604083850312156122ec57600080fd5b50508035926020909101359150565b6000806040838503121561230e57600080fd5b61231783611eab565b915061232560208401611eab565b90509250929050565b600181811c9082168061234257607f821691505b60208210810361237b577f4e487b7100000000000000000000000000000000000000000000000000000000600052602260045260246000fd5b50919050565b7f4e487b7100000000000000000000000000000000000000000000000000000000600052601160045260246000fd5b8181038181111561078d5761078d612381565b808202811582820484141761078d5761078d612381565b6020810161078d8284612263565b600083516123fa818460208801611e11565b83519083019061240e818360208801611e11565b01949350505050565b8082018082111561078d5761078d612381565b600082612460577f4e487b7100000000000000000000000000000000000000000000000000000000600052601260045260246000fd5b500490565b60006020828403121561247757600080fd5b815161139281611ff0565b600073ffffffffffffffffffffffffffffffffffffffff8087168352808616602084015250836040830152608060608301526124c16080830184611e35565b9695505050505050565b6000602082840312156124dd57600080fd5b815161139281611dc656fea164736f6c6343000815000a",
    "linkReferences": {}
  },
  "methodIdentifiers": {
    "approve(address,uint256)": "095ea7b3",
    "balanceOf(address)": "70a08231",
    "emitTreasury((uint8,uint24,uint256,uint256,uint256,uint256))": "a768ef65",
    "emitter()": "dce11375",
    "getApproved(uint256)": "081812fc",
    "getPriceAmount(uint256)": "b176c59d",
    "getTokenInfo(uint256)": "8c7a63ae",
    "isApprovedForAll(address,address)": "e985e9c5",
    "name()": "06fdde03",
    "onERC721Received(address,address,uint256,bytes)": "150b7a02",
    "openMarket()": "3606f5b9",
    "openPublicOffer(uint256)": "5cd0ea89",
    "owner()": "8da5cb5b",
    "ownerOf(uint256)": "6352211e",
    "renounceOwnership()": "715018a6",
    "retrievePartialInvestment(uint256,uint256)": "fdddaff3",
    "retriveFullInvestment(uint256,uint256)": "d6ceaa70",
    "safeTransferFrom(address,address,uint256)": "42842e0e",
    "safeTransferFrom(address,address,uint256,bytes)": "b88d4fde",
    "setApprovalForAll(address,bool)": "a22cb465",
    "setEmmiter(address)": "181b2235",
    "supportsInterface(bytes4)": "01ffc9a7",
    "symbol()": "95d89b41",
    "tokenInfo(uint256)": "cc33c875",
    "tokenURI(uint256)": "c87b56dd",
    "totalSupply()": "18160ddd",
    "transferFrom(address,address,uint256)": "23b872dd",
    "transferOwnership(address)": "f2fde38b"
  },
  "id": 41
}